:020000040C00EE
:1000000000C8FF1F010200087DA10208910200083C
:10001000910200089102000891020008000000000F
:100020000000000000000000000000009102000835
:1000300091020008000000009102000891020008EF
:10004000093F02089102000891020008910200088D
:100050009102000891020008910200089102000834
:1000600091020008000000000000000000000000F5
:1000700091020008000000009102000891020008AF
:100080009102000891020008910200089102000804
:1000900091020008910200089102000891020008F4
:1000A000910200089102000800000000000000001A
:1000B0000000000000000000000000000000000040
:1000C0000000000000000000000000000000000030
:1000D0000000000000000000000000000000000020
:1000E00000000000000000009102000891020008DA
:1000F0009102000891020008910200089102000894
:10010000B568020809D1FF1F91020008910200089A
:1001100000000000000000000000000000000000DF
:1001200000000000000000000000000000000000CF
:100130009102000891020008910200089102000853
:1001400000000000000000000000000000000000AF
:100150009102000891020008000000000000000069
:100160009102000891020008910200089102000823
:100170009102000891020008910200089102000813
:100180009102000891020008910200089102000803
:10019000910200089102000891020008413902080A
:1001A0002939020835390208910200089102000835
:1001B00091020008910200089102000891020008D3
:1001C000000000000000000000000000000000002F
:1001D0000000000000000000910200080000000084
:1001E00091020008B13F020800000000BD3402087F
:1001F00000000000000000000000000000000000FF
:10020000DFF86CD01B4880471B4C1C4DAC4209DA10
:1002100021686268A368043BA2BFC858D050FAE7BF
:100220000C34F3E7164B174CA34208DA19685A68E6
:100230000020043AA4BF8850FBE70833F4E71248D3
:100240008047124880470000984F030C10D4FF1FCE
:10025000100400008843030C00C8FF1F100C0000AE
:1002600020D8FF1F88690000A8410020000E000070
:1002700000C8FF1F89000208480200086002000849
:10028000600200087002000871CD02085D9D02083E
:04029000FEE7000085
:020000040C02EC
:100000001D4BDB68D90310B525D51C4BDA6812F0FF
:10001000010F1C4602D105F02DFF00E018482268B0
:10002000164B520710D59A6899689B68C2F3036211
:10003000C3F30644531C04FB0333B0FBF3F0C1F3DA
:10004000062303FB000007E09B6803F07F030133F6
:10005000B0FBF3F000E00A48074AD368DBB2013393
:10006000B0FBF3F0136903F001030133B0FBF3F0CD
:10007000044B186010BD00BF0046005010470050F0
:1000800000366E01C05F002038B50B4A0B4D4FF0B3
:100090000054234603CBAB42106051601C4602F172
:1000A0000802F6D1064A074B07CA83E8070004F0A6
:1000B00029FA05F0E3FE38BDC45F002010000020DF
:1000C00084000020D45F002010B5054A0549AA230A
:1000D000552413600C60A0211160036010BD00BFA7
:1000E0005455000CA8AA000C30B5064B064AAA24A9
:1000F000552180251C6011601D601C60302311603B
:10010000036030BD5455000CA8AA000C014BF52229
:100110001A6070475455000C41F21003014AD05840
:10012000704700BF0010005838B50B4BF5221A601D
:1001300050221A600023CA18CD585468074A083361
:10014000B3F5807F15605460F5D1FFF7BDFF044B18
:100150001B68DB07FBD438BD5455000CF055000C70
:100160001020005808B5054BF5221A60FFF7BCFFB8
:10017000034B1B68DB07FBD408BD00BF5455000CC4
:100180001020005801F0FC030344F0B501F0030413
:100190001E69E400F825A54026EA05051D61466FA5
:1001A0004F000325BD4026EA05054567144DA842CA
:1001B00007D1056E012606FA01F125EA0101016663
:1001C00018E092F90050002D14DA55688D40456012
:1001D000CD0800EB850001F00701066C89000725BA
:1001E0008D4026EA05050564167A056C06FA01F1CC
:1001F0002943016412781969A2400A431A61F0BDCB
:10020000008E0248184B5B68DB0710B5044629D402
:1002100000F0B0F908B900F093F9208A00F0EEFE82
:10022000124BD3F8C42012F4006F1A46F8D103F52C
:10023000206321681962D2F8C410C804FBD4626834
:100240005A620A4BD3F8C42012F4007F1A46F8D140
:1002500003F52063A1689961D2F8C4104905FBD465
:10026000E268DA61002010BD004A005000400050F2
:10027000044BD3F8C4305B04FAD4034A136918431F
:100280001061704700400050004A005010B504460D
:10029000FFF7B6FE064B07481B68B3FBF0F303FB02
:1002A00004F00023834202D000BF0133FAE710BDFF
:1002B000C05F002040420F00024A936818439060DC
:1002C000704700BF74400050014BD860704700BFBA
:1002D00074400050024A536918435061704700BF90
:1002E00074400050020F0C235343024A20F0704028
:1002F0009850704710440050020F0C235343024A99
:1003000020F07040985070471444005020F0704224
:100310000C23000F584303F1A04303F58843C3584F
:100320001A4214BF0120002070470000034B044A0A
:100330005B69106803F00103D84070470046005025
:10034000C05F0020034AD36823F480331843D06091
:10035000704700BF00460050034A936923F480337E
:1003600018439061704700BF00460050034A536A2B
:1003700023F4403318435062704700BF00460050DA
:10038000064AD36820B923F4807323F0010303E005
:1003900043F4807343F00103D3607047104700506B
:1003A000054BD3F8C4301B07FAD4044AD36823F0B2
:1003B00040031843D0607047004000500043005095
:1003C000054BD3F8C4301B07FAD4044AD36823F092
:1003D00080031843D0607047004000500043005035
:1003E000034AD368013823F0FF030343D360704707
:1003F00000460050034A136A013823F00103034307
:100400001362704700460050034A1369013823F015
:10041000010303431361704700460050034A5369C8
:10042000013823F001030343536170470046005035
:10043000034A9369013823F007030343936170472C
:1004400000460050034A536A013823F0FF03034378
:100450005362704700460050014B5860704700BF20
:1004600000460050020F0C235343024A20F0704014
:100470009850704744460050020F0C235343024AE1
:1004800020F07040985070474846005020F070426D
:100490000C23000F5843034BC3581A4214BF0120CA
:1004A00000207047404600500F4B5A6942F001024D
:1004B0005A615A6901380139000642F0100240EAD7
:1004C00001215A6159615A6942F040025A615A69E0
:1004D00022F010025A615A6942F480225A611A6964
:1004E0005207FCD5704700BF1047005010B50B4CA9
:1004F0006368012843F4801363600AD1636823F4BE
:10050000801363606420FFF7C1FE636843F4002337
:1005100063606420BDE81040FFF7B8BE104700508C
:10052000024B4FF480325A60704700BF00420050C7
:10053000024B4FF480329A60704700BF0042005077
:100540000A4B1A68D20704D5094B1A68900506D4DD
:10055000704701225A601A68D107FCD5F4E74FF4BE
:1005600000729A601A689205FCD4704700420050ED
:1005700000440050054B186810F001001EBFD3F86E
:10058000000280F40070C0F3402070470042005029
:10059000034B186880F00800C0F3C000704700BF2C
:1005A00000430050104BD3F8C42012F0800F1A46BD
:1005B000F8D103F54073D96921F03001D961D2F83F
:1005C000C4100907FBD4DA6842F00802DA60064B6F
:1005D000D3F8C4205207FAD4044A08219160D3F812
:1005E000C420002AFBD17047004000500043005057
:1005F00070B50C4D0C4E6B6823F480336B607468DF
:1006000005F038FC094BB0FBF3F024F470230138FB
:1006100023F0300343EA004373606B6823F4003334
:100620006B6070BD1047005000470050A0252600A9
:10063000044B186800F46070A0F56073584258418C
:10064000704700BF10470050034A536823F48033BB
:1006500023F002035360704710470050034A536869
:1006600043F4803343F00203536070471047005057
:10067000054A9368013823F4FE0343EA004393607C
:100680003220FFF703BE00BF104700502DE9F041B4
:100690000C46054690461F46069EFFF771FE012C4C
:1006A000314C52D135B905F0E5FB304DB0FBF5F0DA
:1006B000800501E04FF0C060636843F001036360B0
:1006C000636843F010036360A168294B08F1FF32AF
:1006D0000B4043EA02637A1E43EA0222784318235E
:1006E000B0FBF8F5B5FBF3F39B0D013B42EA034386
:1006F000A360636843F040036360636823F0100302
:100700006360636843F4802363602368164A590773
:10071000FBD5536823F0010353602368DA07FCD448
:100720003C20B5FBF0F0800D864201D2FFF7A0FF20
:100730005A20B5FBF0F0800D864201D2FFF798FFFA
:100740003046BDE8F041FFF793BFA368013E23F0B8
:100750007F031E43A660636843F001036360236860
:10076000DB07FCD5BDE8F0811047005040420F0088
:10077000FF8080F037B504460020FFF7E3FDFFF768
:10078000DFFEE3791BB9607AFFF71AFE06E0FFF798
:1007900009FFFFF7FDFE0028FBD0F4E71B4BD3F861
:1007A000C430002BFAD1207AFFF7A0FE207CFFF79F
:1007B00017FE607CFFF728FEA07CFFF71BFEE07CA5
:1007C000FFF72CFEA37923B9E3784BB9FFF746FF77
:1007D00010E0FFF70DFFFFF72BFF0028FBD0F3E73A
:1007E000FFF732FFA578A088E1786278237800953A
:1007F000FFF74CFFE068B0F5803F01D1FFF7A2FDA5
:1008000003B0BDE83040FFF7FBBB00BF0040005025
:10081000002320FA03F2D20703D4202B08D001339F
:10082000F7E7202B04D0034A002042F8231070473A
:1008300001207047FCE9FF1F38B50A4B5A680024B5
:100840001D4622FA04F3DB0708D5074B53F8243082
:1008500003B198470123A340EB6038BD0134202C3D
:10086000EFD138BD74400050FCE9FF1F10B50446BD
:100870001020FFF7F1FD0A4B9C4204D10420FFF742
:10088000FBFD042006E0074B9C4207D10820FFF740
:10089000F3FD0820BDE81040FFF72EBD10BD00BFDE
:1008A00000C000400000014038B504460D46FFF787
:1008B000DDFFE36843F48073E360236823F440437F
:1008C00043EA8531216038BD0B6843614B79C3F33E
:1008D00040131B0543600B7903F00F0343624B7910
:1008E00003F00F0303624B79C3F3001383610B79A9
:1008F0001B09C3627047436823F4404343EA8131D4
:1009000041607047436823F4407343EA012141602A
:100910007047436823F4406343EA81214160704794
:10092000F0B54C1EE4B26600F6B206F1100C056894
:1009300057785FFA8CFC032303FA0CFE153107FA93
:100940000CF725EA0E0E5FFA81FC012505FA0CF57D
:100950004EEA070E2EEA050795781936F6B205FA23
:100960000CF5B3403D4325EA0301D3781278B34038
:10097000A4001943E4B20F23A34021EA0303A240D9
:1009800013430360F0BD436911B923F0010301E093
:1009900043F0010343617047836A23F4706343EAC1
:1009A0000123836241627047092930B59CBF094C1D
:1009B000094DD0F8A83099BF645C35F811104FF498
:1009C00040510C2423EA0103A2401A43C0F8A82096
:1009D00030BD00BFA0D60208AAD6020810B5044C4C
:1009E0002046FFF749FD2046BDE81040FFF784BCD4
:1009F0002000001070B50D4616460446FFF7EEFFC6
:100A000004EBC5003368436073688360012D9EBFAB
:100A1000836843F08073836070BD70B514460546EB
:100A20000E46FFF783FCB0FBF4F00F280BD9B0F5AE
:100A3000801F0AD205EBC6014C68230D1B0503433A
:100A40004B60002070BD042070BD032070BD0B1DE5
:100A500000EB830370B55E68C3690C01E340C3F328
:100A60000B039B1B03FB0222BDE87040FFF7D5BFC1
:100A700000EBC10100204B6823F4E00343F4801332
:100A80004B60704738B500EBC104656825F4E0059C
:100A90006560154662B1A26822F4CE222A43A260A4
:100AA000636823F4E00343F400136360002038BD5F
:100AB0001A46FFF7B2FF0028EDD038BDF8B50EB2E8
:100AC00000EBC6040D46D4F804C0DDF818E0043588
:100AD00000EB85052CF4E00CC4F804C06A60C5691D
:100AE000320140F6FF76964025EA060593402B43F7
:100AF000C361A36823F4CE234EEA0303A360BEF1CF
:100B0000000F07D0636823F4E00343F4A00363609D
:100B10000020F8BD079AFFF79AFF0028F2D0F8BD31
:100B200038B500EBC104656825F4E005656015463D
:100B300062B1A26822F4CE222A43A260636823F441
:100B4000E00343F480036360002038BD1A46FFF7DA
:100B500064FF0028EDD038BD70B514780123D55C52
:100B600003EB83060133B540062B44EA0504F6D1B6
:100B700000EBC10101230C6212F8060F12F8014FBD
:100B800003EB83050133AC40062B40EA0400F5D1AA
:100B9000486270BD2DE9F84300EBC10498466368D4
:100BA000089D23F4E00306460F46914663605DB15D
:100BB000304639464A46FFF7CFFFB8F1010F09D159
:100BC000636843F0005308E0099A5201FFF725FFDC
:100BD00080B9EDE7636823F000536360A36823F4F2
:100BE000CE232B43A360636823F4E00343F4401354
:100BF00063600020BDE8F88338B5064C0546204602
:100C0000FFF73AFC2046FFF777FB0123C5F898333E
:100C100038BD00BF10000020FFF7EEBF10B504463E
:100C20000848FFF773FB08B1002010BD0548FFF727
:100C30002DFC0028F8D1D4F89803003018BF01200B
:100C400010BD00BF10000020094B30B50F209C687C
:100C50008D00A84024EA0000AA4002439A60186967
:100C600001F0070101228A4002431A6130BD00BF32
:100C7000004900504FF480738B40C0F8A03301232B
:100C80008B40D0F8A0231342FBD1704710B540F23F
:100C9000011303FA01F1002322FA03F4E40744BF2D
:100CA0005C00C43403F1010348BF40F82410052B55
:100CB000F2D110BD10B5012303FA01F1002322FA8D
:100CC00003F4E40744BF5C00CE3403F1010348BFE2
:100CD00040F82410052BF2D110BD0000F8B50546F0
:100CE0000C461646FFF79AFF002800F09E80D5F8C4
:100CF000A033E340DB0700F19A8058226243716819
:100D0000A950AB18B2689A60318BF2681A61D96148
:100D100032689A61F27E42F440621A64464A954211
:100D200005D1012C9FBF32699A6472691A65338CB0
:100D3000BBB9B37803F05003102B12D1582707FB2F
:100D4000045796F822207B6C02F0070143EAC12386
:100D50007B6428461209FFF777FF3B6C23F480631E
:100D60003B64B38BB3B9B37803F06003202B11D18C
:100D7000582707FB0457B27F7B6C02F0070143EA58
:100D8000C1137B6428461209FFF75EFF3B6C23F416
:100D900000633B64284621461F22FFF78BFFB37E8A
:100DA000013B072B45D8DFE803F0040B131A1E297B
:100DB0002D38582303FB0454236C43F0004305E013
:100DC000582303FB0454236C43F08043236430E036
:100DD000582303FB0454236C43F04043F6E75823A5
:100DE00003FB045406E0582303FB0454236C43F034
:100DF00080432364A36943F0006314E0582303FB9A
:100E0000045406E0582303FB0454236C43F00043CE
:100E10002364A36943F0805305E0582303FB045483
:100E2000A36943F0C053A36103E00120F8BD022091
:100E3000F8BD0020F8BD00BF00400150014B43F851
:100E4000212070477CEAFF1FD0F8603313F01002B6
:100E500070B515D0D0F80823002482B10123A34037
:100E600013420AD0E1B21022FFF724FF354B53F8AA
:100E70002430002B64D010205FE00134EDE770BD1A
:100E800013F0010416D0D0F8E83214468BB10125D6
:100E900005FA04F21A420AD0E1B20F22FFF70AFF64
:100EA000284B53F82430002B4AD0284645E0013423
:100EB000ECE770BD13F0020213D0D0F8F0227AB143
:100EC0000123A340134209D0E1B20E22FFF7F2FE44
:100ED0001C4B53F824309BB302202EE00134EEE784
:100EE00070BD13F0040414D0D0F8F812144679B190
:100EF0000123A3400B4209D0E1B20422FFF7DAFE3E
:100F0000104B53F82430DBB1042016E00134EEE737
:100F100070BD1B0714D5D0F8002300E001347AB16E
:100F20000123A3401342F9D0E1B20822FFF7C2FE29
:100F3000044B53F824301BB10820BDE8704018471B
:100F400070BD00BF7CEAFF1F036842689A60826838
:100F50009A6100207047000010B5064C2046FFF74C
:100F60008BFA2046FFF7C8F9034A136823F0010300
:100F7000136010BD400000200000025030B562B187
:100F800094070AD105680C4654F8040B2860101B1E
:100F90000818F9D1AA691A6030BD022030BD01F0ED
:100FA000FC03184401F0030110B5C9000469F823DB
:100FB0008B4024EA0303036103698A4013430361FE
:100FC00010BD436F490010B503248C4023EA04038D
:100FD0004367436F8A401343436710BD054BD3F803
:100FE000C430DB05FAD4044A536843F0010353606C
:100FF000704700BF00400050004A0050054BD3F836
:10100000C430DB05FAD4044A53689BB243EA00407B
:101010005060704700400050004A0050084BD3F821
:10102000C42012F4006F1A46F8D103F5206301685A
:101030001962D2F8C410C904FBD442685A627047DE
:1010400000400050024B1A6A02605B6A43607047BE
:10105000004A005007B502689DF8003062F30503AE
:101060008DF8003042689DF8013062F305038DF879
:10107000013082689DF8023062F304038DF802307B
:10108000C3689DF80320013B63F304028DF803203D
:101090009DF80530026962F303038DF8053043695A
:1010A000826903F26C73ADF806309DF8043068462F
:1010B00062F302038DF80430FFF7B0FF03B05DF870
:1010C00004FB000038B50D46044601F059F82B79B1
:1010D00023B920462968022200F094FF084B63637D
:1010E0004FF4A263A3632B791BB96B7943F00B0315
:1010F000E3634FF0FF33E364EB88236438BD00BF44
:1011000002013F0770B50E46044601F039F8F57943
:101110003168002D08BF10252A46204600F072FFD6
:10112000B379013B5B0043F440336D0843F00103A6
:10113000013543EA0523E3633379013B1B0643F49E
:10114000817363637379626B03B93379013B42EA5C
:10115000034363634FF4A063A3634FF0FF33E3647F
:101160003389236470BD70B50D4606461446FFF7FB
:10117000DDF8B5EB900F0AD8032C08D93046294684
:10118000224600F03FFF003018BF012070BD012053
:1011900070BDD0F8083113F0E06F08D1836B1B06E7
:1011A000FCD44FF40053C364C0F880107047C0F8FB
:1011B00080117047D0F80C3113F0E06F0CBF406D18
:1011C000D0F81C0180B27047836B1B0609D4836C76
:1011D00013F4007305D1026C22F00F02026418466A
:1011E000704702207047036C01F4FE32134303641E
:1011F000C36B01F0F8011943C1637047036C01F43C
:10120000FE3223EA02030364C36B01F0F80123EA10
:101210000101C16370470000F0B51F4C04EB80036F
:10122000D4F8E051D3F8C4311B681B0432D5342301
:1012300003FB00435B6A6BB38E080022B24208D006
:10124000342303FB00432F685B6A43F822700132AA
:10125000F4E79300994209D1342303FB0044E36A85
:101260000B44E362636A19446162F0BDD2072F68E0
:10127000D21A8B42F0D2342505FB00459E18F600A9
:10128000D5F824E0FF25B5403D40F5400EF8035069
:101290000133EEE7F0BD00BFA0EAFF1F82B00023DC
:1012A0000193019B43F020030193019B00F01F0079
:1012B00023F4F86343EA8010064B0190D3F8A03181
:1012C000019A1A611A690192019A9206FAD402B03F
:1012D000704700BFA0EAFF1F82B000230193019B6B
:1012E00043F010030193064B019AD3F8A0311A6121
:1012F0001A690192019AD206FAD402B0704700BF6F
:10130000A0EAFF1F826A816830B5046BC1F3120145
:10131000A51A8D4288BF521801788CBF8262846200
:101320000A074FF0000307D1012262F3D44343F0D0
:10133000C04364F3060314E0826A2AB962F312031D
:10134000012262F3DC430CE0C46A121B4468C4F35C
:10135000C6255419013CB4FBF5F464F3DC4362F395
:1013600012030C4A1268547B0B4A3CB901F00F047B
:1013700002EB8404406AD4F8C441606101F00F01BB
:1013800002EB8101D1F8C4211361136843F00443D7
:10139000136030BD9CEAFF1FA0EAFF1F0178D0F860
:1013A00030C02DE9F04101F00F0707F16A03294C25
:1013B000866854F823E0836ADEF80050C3EB0C081B
:1013C000C6F31206B0452ABF9B19C0F828C0836235
:1013D000836A00222BB963F31202012363F3DC4218
:1013E0002CE011F00F0FC66A07D14FF0010C6CF31F
:1013F000DC429B1B63F312020FE09B1B4668C6F3A3
:10140000C62606F1FF3C63F312021FFA8CFC1CFA9D
:1014100083F393FBF6F363F3DC420F4B1B685B7BB8
:101420001BB9436ACEF8143008E0012B01BFD4F891
:10143000A461706BBB40034308BF736301F00F01ED
:101440006A3145F0044554F821301A611D60BDE849
:10145000F08100BFA0EAFF1F9CEAFF1F00206FF38E
:1014600000006FF3410040F01C006FF3451040F4A2
:10147000E070C0F308007047044BD3F8A421536810
:101480006FF3410353600020704700BFA0EAFF1FC5
:10149000044BD3F8A421536843F0020353600020A7
:1014A000704700BFA0EAFF1F10B50E4A00F00F03FF
:1014B000342000FB03204468C4F3001484B903798A
:1014C0005B070DD54369994294BF01630363C36809
:1014D000C462846243620461FFF714FF204610BDBA
:1014E000012010BDA0EAFF1F044BD3F8A4311A68F5
:1014F00011B960F30A121A6000207047A0EAFF1FBA
:1015000010B51D4A00F00F0440B2C1B1342363434B
:101510000028D35C03F00F03ABBF02EB83036A33F5
:10152000D3F8C41152F823100B6843F400130B6076
:10153000342303FB0422137943F0200319E03423FE
:1015400063430028D35C03F00F03ABBF02EB8303BC
:101550006A33D3F8C40152F82300036861F355538A
:1015600043F080530360342303FB042213796FF3A9
:1015700045131371002010BDA0EAFF1F00F00F02F9
:101580003421114B51435818595C090642BF416838
:1015900021F008014160342151435818595C090673
:1015A0005EBF416821F010014160342000FB02332E
:1015B00000201A7918616FF345121A7198619862C8
:1015C000D8621863704700BFA0EAFF1F2DE9F04101
:1015D000384B00F00F043422624303EB020ED3F8C1
:1015E000A4619EF804109A5CF56911F0040F4FF0A5
:1015F000000702F00F0C4FF0010058D001F0FB0182
:101600006FF345118EF80410DEF8041021F010017C
:10161000CEF80410DEF8041067F3CF3721F008018C
:1016200000FA0CF047F0904722F07F02CEF8041049
:101630006FF3555702F0FF08C143AAB99EF8042082
:10164000900711D003EB8C0CDCF8C421176001EA81
:10165000154262F31F45184A1268527B012A16D1BF
:10166000726B0A40726312E00CF16A0253F8222096
:10167000176001EA050262F30F05B8F1000FE1D02F
:101680000C48342202FB040212799207DAD034208B
:1016900000FB0430F56181880122C1F383118A4087
:1016A000B3F8FC1121EA0202A3F8FC210020BDE8F6
:1016B000F08100BFA0EAFF1F9CEAFF1F034BD3F895
:1016C000A4319868C0F30D20704700BFA0EAFF1F47
:1016D000044B93F8FE0100F00500431F58425841A7
:1016E000704700BFA0EAFF1F0748D0F8A42108B543
:1016F000536843F00203536000214FF402720BF071
:1017000078FB002008BD00BFA0EAFF1F2DE9F84FBD
:10171000DFF8B491154600F00F08342202FB08FBF5
:101720000BEB0904D9F8A43182460E46204600216D
:10173000DF690BF05EFB23790BF809A043F004038B
:1017400023716368204665F3D12340F8043F4B467C
:101750004268BAF1000F02D04FF6C07100E040219C
:1017600061F312024260342202FB08F2DFF85CE10E
:10177000995C01F00F0108029C180EEB000C0EF5AD
:10178000E06E7044E0604E48C4F81CC050F8210080
:1017900020624C4850F8210060619A5C100601D428
:1017A000002E54D101F16A0253F822C0DCF8002067
:1017B00042F4004266F393429EB9102D0DD003D837
:1017C000082D10D1032009E0202D04D0402D0AD18E
:1017D00066F30A0207E0012000E0022060F30A023B
:1017E00001E065F30A0242F08052B3F8FCE16FF3C6
:1017F00055524FF00009012010EA0E0F5FFA89F4EC
:1018000007D009F101094000B9F1070F80B2F3D107
:101810004C4610EA0E0F04BF40EA0E00A3F8FC018C
:101820004FF0340000FB083018BF0024B0F804E08B
:1018300004F00F0464F3995264F3891EA0F804E0E5
:10184000CCF8002001228A403A4362F30F07342289
:1018500002FB08F813F80820120600D556BB03EB6C
:101860008102D2F8C401026842F4004266F3934256
:101870009EB9102D0DD003D8082D10D1032409E0F6
:10188000202D04D0402D0AD166F30A0207E001247E
:1018900000E0022464F30A0201E065F30A0242F068
:1018A00080526FF35552026001228A4042EA174289
:1018B00062F31F47D3F8A4310020DF61BDE8F88F41
:1018C0003CD8FF1F20D8FF1FA0EAFF1FA84100201F
:1018D00038B50C4C342303FB004408462569A36942
:1018E000954228BF1546E268D1182A460BF076FAD1
:1018F00023695B1B23610BB1A3692B44A3612846B9
:1019000038BD00BFA0EAFF1FF8B5134B00F00F0071
:10191000342404FB00342379580719D563681B0766
:1019200018D4236AE0699A4228BF1A4615460BF07C
:1019300055FAE36963620023A362E3626368256387
:1019400043F0080320466360FFF728FD206BF8BDD5
:101950000120F8BD0020F8BDA0EAFF1F10B500234C
:10196000017B1846DAB28A420FD2084C342202FBBD
:1019700003425468240705D4526812F0100F18BFB0
:10198000012000E001200133ECE710BDA0EAFF1FB9
:1019900070B50B4E96F8FE51FFF7E0FF96F8FE315A
:1019A0000024C3F3800305F0010563F3000465F32D
:1019B000410460F38204012363F3C404204670BD34
:1019C000A0EAFF1F10B5054C2046FEF755FD204646
:1019D000FEF792FCBDE81040FEF7A2BD800000209B
:1019E00038B50546FFF7EEFF394B1D600023394936
:1019F000402241F82320384941F823200133072BA6
:101A0000F5D1364C00214FF4027220460BF0F1F96B
:101A10006B68C4F80032AB68C4F804322B68C4F8B1
:101A2000A03103F50062C4F8A42104F5D27103F5D6
:101A3000106203F51E6041F8042F20328242FAD171
:101A4000274903F5306203F53E6041F8042F203248
:101A50008242FAD123490022013203EB0230072AE5
:101A600041F8040FF8D19A68697B42F0810211B9FC
:101A700042F0200201E06FF345129A60DA6842F00A
:101A8000804242F48072DA60D3F8002842F0030208
:101A90006FF3D752C3F80028D3F8042842F00202AB
:101AA000C3F804281020FFF7F9FBFFF715FCD4F862
:101AB000A0210D496C7B00204FF0FF3390615361F2
:101AC0000A4B012C08BF0B4643F44023936138BDF9
:101AD0009CEAFF1F20D8FF1F3CD8FF1FA0EAFF1F72
:101AE00060ECFF1F7CECFF1F1E3C00C00E3C00C0E2
:101AF00010B5054C2046FEF7F5FB2046FEF7B2FC7C
:101B0000BDE81040FEF714BD8000002000230D2822
:101B10001ED8DFE800F0071D1D1D0A1D0D10101353
:101B200015181D1B4FF0804312E04FF480530FE057
:101B30004FF400630CE04FF0004309E0082307E096
:101B40004FF4806304E04FF4005301E04FF40023AE
:101B5000024AD2F8A0215361704700BFA0EAFF1FDC
:101B6000034BD3F8A421536918435061704700BF59
:101B7000A0EAFF1F034BD3F8A42113691843106197
:101B8000704700BFA0EAFF1F2DE9F04FC14CD4F809
:101B9000A0319F695D693D405FFA85F818F0080F34
:101BA00085B0064606D00920D4F8003298470920AF
:101BB000FFF7ACFF737B012B19D118F0100F16D073
:101BC000D4F8A0316FF304179F61196AC1F343433E
:101BD000022B01D0062B05D101F00F00C1F30A1131
:101BE000FFF71AFBD4F8A03147F010079F61C5F347
:101BF00007277A0702D50A20FFF788FF3B0706D59B
:101C00000620D4F8003298470620FFF77FFF4FEAFE
:101C1000156818F0800F06D00820D4F800329847D5
:101C20000820FFF773FF18F0400F0CD094F8FE3136
:101C300043F0040384F8FE310020D4F800329847C2
:101C40000020FFF763FFF8065CD5D4F8A4215368A1
:101C500043F001035360904B03F11C0053F8041F41
:101C60000A6842F000626FF3555283420A60F5D170
:101C7000D4F8A03140214FF4801261F30F02596271
:101C80009A62864AC3F804211032C3F80821103240
:101C9000C3F80C211032C3F810211032C3F81421FC
:101CA0001032C3F818211020FFF7F8FA0020FFF7D0
:101CB000F5FAFFF711FBD4F8A4314FF00112DA6105
:101CC0000F20FFF74DFF0F20FFF754FFD4F8A4219A
:101CD00013684FF0000868F30A131360737B012B3D
:101CE00008BFC2F83480636823F010036360636840
:101CF00023F0080363600420D4F8003298470420DE
:101D0000FFF704FFB90619D5D4F8A82113686FF3BB
:101D10000A03136094F8FE3143F0050384F8FE31A2
:101D20000220D4F800329847D4F8A021D3680921C2
:101D300061F38D23D3600B20FFF7E8FEC5F307475F
:101D40007A0740F1BB80D4F8A4319A691B690193EA
:101D50004FF0000A93B20293D046029B5FFA8AF4D6
:101D6000234100F0A880DB0740F1A280494A04F13A
:101D70006A034FF0340E0EFB04FE52F82300D2F833
:101D8000A431D0F808C05B6B02EB0E0112F80EE034
:101D90000EF00F0923FA09F34FEAC319019B5FFA0A
:101DA00089F949EA0309737B09EA0C0913B9D0F8E8
:101DB00010803CE0012B3AD119F0800F37D00EF0A3
:101DC0000F0E0EF178000EF16A0E52F8200003900B
:101DD000886AC96A52F82E20401A92691DD000F113
:101DE000030C92B24FEA9C0C944584BF9000944639
:101DF0004FF0000BE34510D02649342202FB041EAD
:101E00000BF1010BDEF824100A6803990A60DEF872
:101E100024200432CEF82420ECE71E4A342101FBB2
:101E20000421CA6A0244CA624A6A02444A6219F038
:101E3000010F37D083B928F060426AB9154A3421BE
:101E400001FB0421D1F828E0CA6A486AC1F82CE0F5
:101E5000C2EB0E0202444A62DFF838E0342000FB95
:101E600004E0016B826A91421AD1426822F00802B2
:101E7000012B426001BFDEF8A421516BA34021EA8F
:101E8000030308BF536344F08000DEF804320221EC
:101E9000984707E0A0EAFF1F60ECFF1F500010000A
:101EA000FFF77CFA6A34564B53F82430C3F8089095
:101EB0000AF1010A51E70E20FFF728FE380740F12A
:101EC00087804F4AD2F8A4118B69CF694969019183
:101ED000C3F30F434FF0000803EA1747C246934687
:101EE0005FFA8AF457FA04F36FD0D9076AD50BEB7F
:101EF0008403019AD3F8C4118B6803EA0209737B47
:101F00000BB9D1F810805FFA89FC1CF0080F29D0BA
:101F1000342000FB04B001796FF3451101712BB936
:101F2000C8F34173DB00C3F1180304E0012B03D1B4
:101F3000C16A03690B440361342303FB04B3CDF886
:101F400008C0596821F0100159600020DBF8043204
:101F5000014698470BEB84030821D3F8C431DDF820
:101F600008C099601CF0010F26D0737B73B934232D
:101F700003FB04B3C8F3120CD96A986A401ACCEB7D
:101F800000000144D962596A01445962342000FBBF
:101F900004B0016B836A99420CD1C36A0361436840
:101FA00023F010034360164B2046D3F8043201217E
:101FB000984701E0FFF7A6F90BEB8404D4F8C4318D
:101FC000C3F808900AF1010A8AE70D20FFF79EFD89
:101FD0006A0712D50A4CD4F8A0315D686B0709D5A1
:101FE00094F8FE316FF3820384F8FE310120D4F8B7
:101FF00000329847D4F8A0315D6005B0BDE8F08F9D
:10200000A0EAFF1F63292DE9F04105460C4616465C
:1020100030D97AB3FEF78AF9642140F2FF3CB0FB75
:10202000F1FEB4FBF1F401217443CEEB8E270A4696
:102030006046B7FBF4F34FEA9328B8F5806F06D2F9
:10204000C3F3090363453EBF9C464146024601383F
:10205000CEEB0707EDD142F400422A616A69074BD3
:10206000013E134043EA8623013943EA01436B6191
:10207000BDE8F0810120BDE8F08100BFEF8000FCE9
:1020800030B5D0F8084124F0E064C0F80841D0F839
:102090000851054C2C40214341EA026242EA0323E5
:1020A000C0F8083130BD00BFC0C0FFF830B5D0F86F
:1020B0000C4124F0E064C0F80C41D0F80C51064CFF
:1020C0002C4044F08054214341EA026242EA032357
:1020D000C0F80C3130BD00BFC0C0FFEFD0F80C31EC
:1020E00023F0E063C0F80C31D0F80C31090641EA66
:1020F000022223F47C531343C0F80C31704710B50F
:10210000072384698B4024EA03038A401A438261CF
:1021100010BD10B50723D0F808418B4024EA030313
:102120008A401A43C0F8082110BD10B50723D0F823
:102130000C418B4024EA03038A401A43C0F80C2167
:1021400010BD000008B50B4B984206D14FF400605B
:10215000FEF792F94FF4006006E0074B984207D172
:102160000648FEF789F90548BDE80840FEF7C4B8FF
:1021700008BD00BF080003400800024880000010AE
:10218000124B984210B5044603D003F500739842F1
:1021900008D14FF40060FEF76FF94FF40060FEF7CE
:1021A000ABF809E00A4B984203D003F5007398425C
:1021B00002D10848FFF7C6FF0323E360E368DB07AB
:1021C000FCD5236C23F00F03236410BD00000340F3
:1021D000000002480800024808B50120FEF74CF94B
:1021E0000120BDE80840FEF787B838B50D46044623
:1021F000FFF7F2FF6B6923606B6843F40043C4F898
:102200008030AB68C4F8A030EB68C4F8A4302B6908
:10221000C4F880322B68C4F8B83038BD283312B9FE
:1022200040F21F7200E0024A0A4040F82320704743
:1022300000001F07D0F8803043F00043C0F8803022
:102240000B4BD3F8802012F4403F04D0D3F8802009
:1022500012F0805FF9E7074BD3F8802012F4403F7B
:1022600004D0D3F8802012F0805FF9E7704700BFF8
:102270000044004000480040D0F8403123F00F03F4
:10228000C0F840310329D0F8403188BF04391943E0
:10229000C0F840117047F0B542B901F01F051F2684
:1022A000C1F302214FF4E06E082709E0C1F30445B1
:1022B0004FF4F816C1F302614FF0E06E10221827B8
:1022C00000EB8303B940D3F8A04024EA0E04214375
:1022D00021EA060195402943C3F8A010F0BDF8B5E6
:1022E00000220C46054613464968FFF7D4FF2846EE
:1022F000616801220023FFF7CEFF2846A168002273
:102300000123FFF7C8FF012213462846A168FFF703
:10231000C2FF2369E178C5F88030E368C5F8B830BA
:10232000C1F30012C1F38103C1F34017C1F3801060
:102330006188C1F30906217801F0070141EA0641ED
:10234000C5F8F011D5F8F01141F0004141EA0272F0
:1023500042EA836242EA477343EA8073C5F8F03188
:10236000F8BDD0F8803023F003031943C0F8801083
:1023700070470000F0B5254FD7F8843023F0806314
:10238000C7F88430224BD3F8842022F08062C3F84F
:1023900084200A78D7F8844012F00305C2F3810242
:1023A0004FEA022224F440740CBF00264FF400666A
:1023B00014433443C7F88440D3F8844024F4407471
:1023C00022433243C3F884204A6842F4000242F4B4
:1023D0000042C0F800228A680C4942F00102C0F8AD
:1023E0000422022D02BFD0F8042242F48032C0F849
:1023F0000422D1F8842042F08062C1F88420D3F80E
:10240000842042F08062C3F88420F0BD0044004084
:102410000048004030B50123D0F888508B4025EAB1
:102420000304137B8B402343C0F8883092F90D30AE
:10243000002B19DB012907D1D0F8B03023F4F85371
:10244000C0F8B030082507E029B9D0F8B03023F043
:102450001F03C0F8B030002592F90D30D0F8B0401D
:10246000AB402343C0F8B030D0F8C8405368234392
:10247000C0F8C830D0F8D04093682343C0F8D030BB
:102480008031136840F8213030BD072910B50BD8D2
:10249000D0F8B04189000F238B4024EA03038A401F
:1024A0001A43C0F8B02110BD01F180410839D0F8BD
:1024B000B44189000F238B4024EA03038A401A4366
:1024C000C0F8B42110BD000010B5064C2020FDF767
:1024D000C3FF2046FDF7D0FF2046BDE81040FDF7C2
:1024E0000BBF00BF0200002010B50446FFF7ECFF51
:1024F000034BA2685A6062681A6122685A6110BD73
:102500000080005008B50C4B1A680AB90B4A1A60D3
:102510001A680B49C31C23F0030313448B4203D2F4
:10252000054910460B6008BD0AF0A0FB0C230360B0
:102530004FF0FF3008BD00BF58D8FF1FA84F002044
:10254000C05F0020704708B50120FDF7B5FE0120EF
:10255000FDF7C0FE002008BD38B50379054653B924
:10256000FFF7F1FF0128044606D02868FFF7BCFFFB
:1025700001232B7100E00024204638BD030A022B02
:1025800006D0032B07D0012B0ED11220084B0DE0F3
:102590003E20084B0AE0C0B2022805D8064B074986
:1025A00053F82030085C01E00020034613607047B8
:1025B00066D7020853D8020844D8020850D8020847
:1025C000044B00F00F0220F07F0083F83C2183F8D9
:1025D0003D01704798EFFF1F054B93F83C212C21DC
:1025E00001FB02331A7912064CBF988B9889704709
:1025F00098EFFF1F10B5424B93F83E219207044617
:102600007CD5404A807C918889B2884276D15178C5
:102610002039032972D8DFE801F026024B5E1278D8
:10262000A12A6BD193F83E2193F83C1122F00202CB
:1026300083F83E212C2202FB01329068C006F9D4B7
:1026400092689007F6D5A06900F05AFB207F00F051
:102650002BFB607F00F028FBA07F00F025FBBDE88E
:10266000104000F0D1BA1278212A47D193F83E21C8
:1026700093F83C1122F0020283F83E212C2202FB47
:1026800001329268920604D41F4A1278002AF5D1CA
:1026900034E000F04BFBA06100F01CFB207700F061
:1026A00019FB607700F016FB184BA0771B680DE054
:1026B0001278212A22D193F83E2122F0020283F8D7
:1026C0003E21104B5B88A382104B5B68B3B1204660
:1026D000BDE8104018471278212A0FD193F83E2107
:1026E00022F0020283F83E21084B9B6833B1054A71
:1026F00051882046C9B2BDE81040184710BD00BF40
:1027000098EFFF1F8EEDFF1F8DEDFF1F24D4FF1FDD
:1027100038B50C220446002114300AF06AFB02236B
:102720002371A372032323742046012100F016FBBA
:1027300001210546A01D00F011FB0121002804F134
:102740000C0008BF002500F009FB002814BF284634
:10275000002038BD38B50A4B1B78042B0D461446B3
:102760000BD183694BB10078FFF72AFF2846214639
:102770000022BDE8384000F03FB9022038BD00BF5C
:102780008DEDFF1F08B5094B1B78042B0BD1836916
:102790004BB10078FFF714FFFFF71EFF20B100F0E8
:1027A00033FA002008BD022008BD00BF8DEDFF1FD9
:1027B00010B50E4B1B78042B01D0002414E0836964
:1027C000002BFAD08079FFF7FBFE094B93F83C21F0
:1027D0002C2101FB02339B689B06EED5FFF7FCFE24
:1027E000044608B900F0E6F9204610BD8DEDFF1F44
:1027F00098EFFF1F014B01221A707047E8ECFF1F92
:10280000014B01225A707047E8ECFF1F014B012277
:102810009A707047E8ECFF1F08B581200E494022EE
:1028200000F03AFE82200D49402200F035FE0320E0
:102830000B49402200F030FE0A48FFF769FF48B11B
:10284000094A92F83E3143F0010382F83E31074BCA
:1028500004221A7008BD00BFEBECFF1FA8ECFF1F9D
:102860002BEDFF1F6CEDFF1F98EFFF1F8DEDFF1F7E
:102870000148FFF7BFBE00BF6CEDFF1F08B500F0B9
:1028800005FE20B1024B1878031F5842584108BD7D
:102890008DEDFF1F10B503460A4679B170B1194698
:1028A0000848FFF757FF0028064814BF06240024F5
:1028B000FFF768FF002818BF062400E00624204622
:1028C00010BD00BF6CEDFF1F37B500220546ADF807
:1028D00006200C4699B190B10A4B032183F83C11B4
:1028E00083F83D21284621460DF1060200F0D6F876
:1028F0000528F7D000280CBF0020062000E00620A5
:1029000003B030BD98EFFF1F38B5074C4FF400659A
:10291000C4F88C50BFF34F8FBFF36F8F0348FFF79E
:1029200047FFE56038BD00BF00E100E06CEDFF1F30
:10293000C0B10D4B02691B681B691A6182689A60FD
:1029400002681A60C268DA6042685A6042695A6175
:10295000C269DA6182699A61026A1A62426A5A62DB
:1029600000207047012070475CD4FF1F114B0220EC
:1029700010B51871987281208221187308200022E6
:1029800040241970D88103210B489A745C805A71D5
:1029900099711C81DA7219745A74FFF7C9FF38B93A
:1029A000064B186800F0DEFC003018BF012010BD97
:1029B000012010BD6CEDFF1F30D4FF1F5CD4FF1F42
:1029C00008B5094A92F83E31D9070CD56FF30003D8
:1029D00082F83E31054B1868FFF7C8FF18B9BDE80B
:1029E000084000F047BD08BD98EFFF1F58D4FF1FF7
:1029F00000F040BD00F044BD2DE9F84F264B824663
:102A00000D4693F83C911746984612B116888C1BD8
:102A100036E016460AE000F0F7F8BBF80830C3F3DA
:102A200086139D422EDB00F083F890BB85B34FF0F8
:102A30002C0B0BFB098BDBF80830DB06F6D400F01F
:102A40001BF90028E7D0DBF81C30DBF824404FF0FE
:102A50002C0B0BFB098BE41AAC42DBF8200094BF73
:102A6000A4B22C4618440AEB060122460AF0B6F935
:102A7000DBF81C3026442344CBF81C30B6B22C1BA8
:102A8000A5B2D3E7002FCED03E800520BDE8F88F59
:102A90002846BDE8F88F00BF98EFFF1F2DE9F84FDB
:102AA000224B82460D4693F83C911746984612B148
:102AB00016888C1B2DE0164602E000F039F898BB12
:102AC0008DB32C2404FB0984A3681B07F8D400F001
:102AD000D3F800B32C23E46803FB098303F1080B4C
:102AE000AC4259691B6994BFA4B22C460AEB06009C
:102AF000194422460AF072F9DBF804301B1BCBF8AC
:102B00000430DBF8083026442344CBF80830B6B252
:102B10002C1BA5B2D4E700F04DF8002FCDD03E809D
:102B20000520BDE8F88F2846BDE8F88F98EFFF1F15
:102B300070B51E4C23689B6B98476425064694F835
:102B40003C212C2303FB02431979080607D598681A
:102B5000C0F3001030B99B68990703D570BD9B681E
:102B60009B060ED4124B1B7803F0FF015BB10529C5
:102B70000BD02C2303FB02429068C0F3800030B1DD
:102B800070BD002070BD022070BD032070BD074BDA
:102B90001B689B6B9847B042D1D06B1EDBB215B15E
:102BA00006461D46CBE7042070BD00BF98EFFF1F0F
:102BB0008DEDFF1F70B5134D95F83C312C2404FBAF
:102BC0000354A3689A071BD52B68A269DB6A207996
:102BD00061699847A368E06000221B0722610FD457
:102BE00070B92389A16943F008032381238960F325
:102BF000451323812B6820799B6ABDE870401847F4
:102C000070BD00BF98EFFF1FF8B5194A92F83C312C
:102C10002C2101FB03239968C80627D499688907EA
:102C200024D51989186A134E03F1280541F01001C3
:102C300003F1200419816860D869A0604FF400672F
:102C40000020D861C6F88C70BFF34F8FBFF36F8F31
:102C500012681879D2F830C06968A268E0476A68DB
:102C6000A36802441B1A6A60A360F760F8BD00BF46
:102C700098EFFF1F00E100E00A4A92F83C312C2156
:102C800001FB032213791B0606D5506AD3698342E0
:102C90002CBF002001207047D068003018BF0120F1
:102CA000704700BF98EFFF1F30B5094B93F83C21E8
:102CB0002C2101FB0235EC696D6AAC42FDD201FBAF
:102CC00002331A6A1055DA690132DA6130BD00BF89
:102CD00098EFFF1F094A92F83C312C2000FB03209B
:102CE00000F108035A6802B9FEE799684069013AA1
:102CF000405C5A6001319960704700BF98EFFF1F38
:102D000030B5094B93F83C212C2101FB0234E569D5
:102D1000646A033CA542FDD201FB02331A6A50519A
:102D2000DA690432DA6130BD98EFFF1F10B50A4B43
:102D300093F83C212C2000FB0231C9680329FDD9FE
:102D400000FB023303F108041A695B6904399858DF
:102D500061600432A26010BD98EFFF1FF8B5062332
:102D600003FB0101041D0D1DAC4229D0164E14F8C1
:102D7000040C33682178DB6934F8022C00F00F076B
:102D80009847F8B92C2303FB076314F8042C1A7135
:102D900034F8021C1A8961F38C121A81D2B242F003
:102DA00001021A721A8942F002021A8114F8040C04
:102DB000020603D432689969926A90470634D3E7D1
:102DC0000120F8BD0020F8BD98EFFF1F70B509285D
:102DD00077D8DFE800F05B534C510576685F7647A3
:102DE000384B02221A70384B012283F83B2193F8AA
:102DF0003E216FF3820283F83E2107261D462C23D5
:102E0000C6F1070403FB0454072E23896FF3041350
:102E1000238123896FF3C303238123896FF3820303
:102E2000238110D0237ADB070DD5274B20791B682F
:102E30001B6A984738B9237A60F300032372238909
:102E400060F341032381013ED9D12B6885F83961B4
:102E500085F838619B6A287918219847D5F8403160
:102E60005B6A2AE0184BD3F840311B6A25E0164B09
:102E7000D3F840311B6820E0012200E00022114B12
:102E80001A70114BD3F840315B6816E00D4B0122EC
:102E90001A7070BD0C4B0B4A93F83A11D3F84031BD
:102EA00011709B6909E0074A074B117883F83A11C2
:102EB000D3F840310521DB69117013B1BDE87040D2
:102EC000184770BD8DEDFF1F98EFFF1F10B5084C20
:102ED000236880205B6A0121984740B9012384F868
:102EE0003B31236818219B6ABDE81040184710BD8C
:102EF00098EFFF1F73B59A4C9A4D002300930193EE
:102F0000D4F840316E88DB68B6B203B1984794F8C4
:102F10003E319B0740F140816B78F6B20C2B00F2FA
:102F20003981DFE813F076000D003701F600370134
:102F3000C000430037013E00D5006700E7003701BD
:102F40002B78884A03F00303022B1ED1864993880D
:102F5000097804299BB204D0928892B2002A40F0EA
:102F600019812C2203F00F0302FB03431A7AD607C0
:102F700040F110811A896FF382021A81784BA88878
:102F80001B68C0B25B6A0021E7E0137813F003030B
:102F900040F0008194F83E2163F3820284F83E21E0
:102FA000FAE0236871491B6B002030E0D4F840310F
:102FB0005B69002B00F0EE806888A988694E80B2BA
:102FC00089B26A4698470546002800F0E380F388F6
:102FD00000999BB2984228BFF588236828BFADB2FC
:102FE0001B6B2A4600209847009B2D1A1844A562A7
:102FF000E062D1E05C4B1A78042A40F08680A98810
:10300000236889B201F59C711B6B002021440122C9
:1030100047E0287810F003000CD194F83E31C3F358
:1030200080025200D2B2C3F3C00302A9134341F895
:10303000043D0DE04B4B1B7803F00303012B0AD139
:10304000494B1B78042B06D102A9002041F8040D3E
:1030500023681B6B24E02B78424A03F00303022B06
:1030600040F0988040499388097804299BB204D0A5
:10307000928892B2002A40F08D802C2203F00F0338
:1030800002FB03431A7AD00740F184809B6802A9AF
:10309000C3F3800341F8043D314B1B681B6B0020D8
:1030A0000222984778E0304B0EB9022200E003225A
:1030B0001A70236830469B690021984700286BD11D
:1030C000274BD3F840311B69002B65D0984763E04C
:1030D000D4F8403184F839619B6803B198470EB940
:1030E000032204E094F83E31D90753D504221E4B45
:1030F0001A7051E01C4B1A78042A06D16A88AB88F2
:1031000014FA83F383F8382146E01B78032B43D16C
:1031100040E0022E3ED0144B1A78042A28D146B142
:10312000012E39D194F83E3143F0040384F83E3146
:1031300032E0AB882C2203F00F0302FB03431A7A20
:10314000D20727D51A8942F004021A81054B9888C4
:10315000034B1B685B6AC0B2012198471CE000BFAB
:1031600098EFFF1F8EEDFF1F8DEDFF1FD1F0FF1FAA
:103170001B78032B0ED16EB92B7803F00303022BBF
:1031800008D1094B9B8813F0FF0F02BF238943F03E
:1031900004032381FFF79AFE94F83E3123F00203E3
:1031A00084F83E3102B070BD8EEDFF1F2DE9F8436B
:1031B0006A4C00F00F05012920F07F0094F83C8153
:1031C00094F83D7184F83C5184F83D0143D002D31A
:1031D000022970D0BCE02C2303FB05431A896FF34E
:1031E000C3021A81002D40F0B38023685C4EDB6A75
:1031F000284631460822984794F83E31082843F083
:10320000020384F83E3140F0A380B6F806901FFA1E
:1032100089F9B9F1000F0BD1032384F83B31FFF793
:1032200069FE236848461B6B49464A4698478FE02B
:103230003378190605D5022384F83B31FFF75AFE8F
:1032400086E0042384F83B31F188236828469B6A92
:1032500089B298477CE02C2303FB05431E461A895C
:1032600042F0200226F8082F726842B92168B26045
:10327000D1F82CC0187959699A69E04770602C23FD
:1032800003FB0545354E2B896FF3C3032B8194F85F
:103290003C51002D5CD196F83B31042B09D1FFF74E
:1032A00029FE336828461B6B29462A469847032384
:1032B0004CE0052B43E02C2303FB054303F12006E0
:1032C0009A6A72B121681879D1F830C0D96A03F1CD
:1032D0002805E047B3681B1AB3606B681844686040
:1032E00036E01879020712D1DA6982B11C49C9881F
:1032F00089B28A420BD01989C1F38611B2FBF1F36E
:1033000001FB132119B923680A461B6B98472C232C
:1033100003FB054500222B89104EEA6162F304137A
:103320002B8194F83C0198B996F83B31022B05D1DA
:10333000336801469B6A9847052307E0032B07D1B2
:10334000336830799B6A18219847012386F83B310E
:1033500084F83C8184F83D71BDE8F88398EFFF1F45
:103360008EEDFF1F70B53A4C0646FEF7C1FB4FF4D9
:10337000A2722046002109F03CFD364B00221A7053
:10338000354B23600120354B207223624FF480734C
:103390006362A3612389324A626143F0020323819D
:1033A000238984F83B01402262F38C132381336923
:1033B000DA682546002A48D05A69002A45D09A681A
:1033C000002A42D0C4F84031FDF746F8254B73601F
:1033D000254BB360236830465B689847044610BBB2
:1033E000224BDB68C3F30223C3F10701062928BF80
:1033F00006210BB15A1E00E01A4601238B40013B07
:1034000093409B001A4ADBB282F86B334FF400639F
:10341000C2F88C31D3602B680020DB690146402262
:103420009847044690B1FEF763FB2B689B6898476A
:1034300060B90F4B4FF40062C3F88C21C3F88C20A5
:10344000BFF34F8FBFF36F8F00E00446204670BD7F
:1034500098EFFF1F8DEDFF1FC0D6020898EDFF1FEC
:1034600098EEFF1FCD2D0208AD31020800ED00E0FF
:1034700000E100E0014B1B68DB68184798EFFF1F75
:10348000014B1B681B69184798EFFF1F014B1B6816
:10349000DB6B184798EFFF1F10B510F0800F00F09E
:1034A0000F0405484FF02C0303FB040419BF2162ED
:1034B00062626161A26110BD98EFFF1F014B186845
:1034C000FEF762BB5CD4FF1F4368006893F82C30A2
:1034D00001229A40914234BF01F1FF3202F1FF32E2
:1034E0001946FEF7FBBD43685B68184783680022F6
:1034F00010B55A765A60436893F82A2092B993F827
:103500002C4044B10168D1F80C3123F0C043C1F81C
:103510000C31104610BD00684FF44041FDF76EFEBF
:10352000204610BD042010BDF8B5154682684368DA
:103530000F46117E5E6A044609B1022732E0517ED1
:1035400001F0FF020029F8D193F82830022B03D0B4
:1035500030683179FDF723FD2068FDF735FE00283E
:10356000EBD1394620682A46FDF7FDFD074640B9F4
:103570002268D36B6D08013523F4F85343EA05251F
:10358000D5632268136C23F00F0343F00203136426
:10359000636893F82830022B04D030683179B26820
:1035A000FCF7F0FD3846F8BD70B54468836894F8C0
:1035B00029502DBB1D7E05F0FF061DBB21B31AB39C
:1035C0009A6001221A7694F82B201960DE60036855
:1035D00052B14FF40042C3F81821D3F8082142F049
:1035E0008042C3F8082103E01A6C42F400521A64C6
:1035F00094F82D104FF480328A409A66002070BDF6
:10360000042070BD022070BD032070BD436893F894
:1036100029300BB9FFF7C8BF04207047F8B54568DB
:10362000836895F82A60044626BB5F7E07F0FF0694
:1036300017BB19B312B3596001211A6159765E6143
:1036400095F82C3005687BB14FF48043C5F81831EC
:103650001146FFF739FF2268D2F80C3143F0C0431E
:10366000C2F80C313046F8BD2A6C42F440422A645C
:103670001846F8BD0420F8BD0220F8BD0320F8BDAF
:1036800070B58468E368A268934205461ED242681A
:1036900092F82B208AB12868D0F81431DE040BD4BC
:1036A000E368A268934230D22268D15CFDF771FDD5
:1036B000E3680133E360EEE770BD22680068D15C27
:1036C000FDF767FDE3680133E36070BD0368D3F87D
:1036D0001421110519D5416891F82B2032B1D3F886
:1036E000082122F08042C3F8082103E01A6C22F47A
:1036F00000521A649A6B1206FCD4002323762360CE
:103700008B6813B1BDE87040184770BD436893F8EB
:103710002C302DE9F0410546846853B32868D0F871
:1037200014311B071BD4666923699E4206D2676861
:10373000FDF740FDB8556369013363616269236930
:103740009A42EBD100232A686376D2F80C3123F039
:10375000C043C2F80C316B68DB6803B198476369FA
:1037600021698B4222D22846C91ABDE8F041FFF7F1
:10377000ABBE666923699E4207D200686768FDF7A1
:1037800019FDB855636901336361626923699A421F
:103790000CD100232A686376136C23F4404313642E
:1037A0006B68DB6813B1BDE8F0411847BDE8F081F4
:1037B00070B5436801681A698D6CCC6B86B0019254
:1037C0005A6902929A690392DA691B6A0593049214
:1037D00000230E4850F823000442DAB211D00C48FE
:1037E00050F8236035420CD050F82230CB6406AB41
:1037F00003EB820252F8143C33B106B0BDE87040CE
:1038000018470133052BE4D106B070BDA8D80208D3
:1038100094D8020800F00700C0F10702062A28BF6A
:10382000062200B1013801239340013B194001FAFF
:1038300000F0704738B5354D354C364A28460421DE
:10384000FCF7A0FC20463449FDF75CFCE36923F05B
:10385000070343F00103E36120460221052201230F
:10386000FEF70EFC002120460B460122FEF71EFC4F
:10387000236C2A4A23F00F0343F0020323642846F3
:103880000521FCF77FFC204610210322FEF737FCC0
:10389000204610210422FEF73CFC20461021052280
:1038A000FEF743FC1E4D052220461321FEF73DFC8A
:1038B00020462021FDF797FCE8681A4C3F21C0F311
:1038C0000220FFF7A7FF80004FF08073C0B284F89A
:1038D0005803A360E8683C21C0F30220FFF79AFF79
:1038E00080004FF00073C0B284F85903A360E86809
:1038F0003F21C0F30220FFF78DFF8000C0B284F8A3
:1039000057034FF40003A360002038BD0081024834
:1039100000000340ECD8020810D9020804D90208BC
:1039200000ED00E000E100E00148FFF7A9BE00BFA4
:1039300074D4FF1F0148FFF7E9BE00BF74D4FF1F16
:103940000148FFF735BF00BF74D4FF1F90F8263041
:1039500033B190F821302BB942690121D16001E0E7
:10396000012070470020704790F8213023B9436947
:10397000986800F0010070470020704710B50446B9
:10398000FFF7F2FF48B194F8263033B194F82100E4
:1039900028B9636901221A6110BD012010BD002001
:1039A00010BD4369428C5A630022DA630369C2681E
:1039B0009B681A6170470000F8B505460E46FFF790
:1039C000D3FF90BBAB689E422FD36B689E422CD82E
:1039D000C0F10F0223FA02F2964201D90130F7E753
:1039E00095F821300BBB2B691F68EB6900F00F04C1
:1039F0001979E2B262F303011971A6FB070107F01E
:103A000059FE0BA3D3E9002308F064FE80B201281D
:103A100088BF00F1FF30688421466869FCF7BCFF6D
:103A20002846FFF7BEFF0020F8BD0120F8BD00BF0B
:103A300000E1F5050000000038B50446006900F01B
:103A4000BDFA236999680546207ECA680123834030
:103A50001343CB606069E169FCF736FF2046FFF74E
:103A6000A0FF94F8253063B194F82020606900210C
:103A7000FCF79AFF6269D2F8A43043F00103C2F860
:103A8000A430636994F8241002221A61012284F898
:103A9000262001B1DA60284638BD90F8262022B9E8
:103AA00090F821300BB9FFF7C7BF0020704743687B
:103AB0005B681847F0B5476897F88440022C78D1C6
:103AC000836800296ED0002A6CD093F8205005F04E
:103AD000FF06002D68D11C6800689961092C4FF021
:103AE000010583F8205038BF01249E6028BF0224BE
:103AF0001E7F651EAA40056C5A60B601F6B225F01D
:103B0000C0053543056497F87C50002D35D04FF43F
:103B10000045C0F818519D6895423AD2D0F814512A
:103B2000EF04FBD493F8215025B11D7F4FF6FF76AB
:103B3000603506E09D68022C0CBF4E5B4E5D1D7F1C
:103B4000603540F825609D6825449D60E3E793F863
:103B50002150B5B11D7F4FF6FF76203540F8256026
:103B60009D6825449D60856C6D05FCD5C56C45F44C
:103B70008065C5649D6895420BD2856B2E06FCD48A
:103B8000E5E79D68022C0CBF4E5B4E5D1D7F203526
:103B9000E4E7826B1206FCD4002083F82000586012
:103BA000986002E0032000E02046012283F82220F2
:103BB000F0BD0120F0BD000038B5234C2349244D51
:103BC0002046FDF77FFA636B224A43F001036363EB
:103BD000636B43F070636363636B23F47C1343F4A0
:103BE00070236363636923F050436361636923F463
:103BF000FE4343F4A0636361E36923F0500343F0A1
:103C00001003E361E36923F0070343F00103E36179
:103C1000236C23F00F0343F001032364284605219E
:103C2000FCF7B0FA284605210022FDF7CAF928461C
:103C30000421094AFCF7A6FA204610210022FEF7CB
:103C40005EFA002038BD00BF0002034040D5FF1FD0
:103C50000082024808D5FF1F24D902084268D378A1
:103C6000917810B504469800537840EA4100184313
:103C7000137940EAC300537940EA4310937950EA3C
:103C8000831005D0FCF7F4FA0220FCF715FB0120A5
:103C90006368DC79012C04D14FF48070FCF7E8FAFA
:103CA000204610BD38B5436805469968022000F0EB
:103CB00029F96B68DA79012A044604D1D96804200D
:103CC00000F020F900E000202040C0B238BD000024
:103CD00038B50446104800F0E5F80546C8B9237A1F
:103CE000BBB92068FCF78EFA90B92046FFF7B6FF03
:103CF00030B963681B78012B07D1FDF76FF904E039
:103D00002046FFF7CFFF20B9F3E70123237200E03D
:103D10000125284638BD00BF60D5FF1F08B5C36820
:103D20001BB1FDF797F9002008BD012008BD4FF435
:103D3000C872B0FBF2F302FB13039BB263B16422BF
:103D4000B0FBF2F302FB13039BB23BB110F0030F85
:103D50000CBF0120002070470120704718467047B3
:103D6000294B5B68DB07F7B5054649D56846FDF783
:103D700069F9BDF8067040F26D147C43A4F52F2458
:103D8000A4F6CA047E1E40F2B1739E4206D9B0B2B8
:103D9000FFF7CDFF00B10134013EF4E73846FFF7ED
:103DA000C6FF9DF8053020B103F00F02022A88BF3C
:103DB000013403F00F0028B1144B53F820300138C0
:103DC0001C44F8E79DF803309DF8022003F01F0320
:103DD0001C449DF8013003F03F03C3EB031302F0D2
:103DE0001F029B004FF4616101FB02339DF800202C
:103DF00002F03F021344064A02FB04332B6000E04A
:103E0000012003B0F0BD00BF004A0050CCD9020829
:103E100080510100204BF0B5D96805784278877849
:103E2000C1F30221C1F1070EBEF1060F28BF4FF00A
:103E3000060E01B10139012404FA01F3013B04FA31
:103E40000EF403EA0706631E13408B406AB2002A91
:103E500043EA06034FEA8303AFBF02F1604205F075
:103E60000F050E4ADBB2A5BF02F56142DBB2535526
:103E700082F80033C3786BB1027853B2002BA1BF34
:103E8000012102F01F0201FA02F25B09A4BF0449FA
:103E900041F823200020F0BD00ED00E014ED00E02B
:103EA00000E100E00379F0B52BBB144BD96803683F
:103EB000C1F30221C1F10707062F1A785E7828BFE7
:103EC000062701B10139012404FA01F3013B03EA99
:103ED000060504FA07F3013B13408B402B439B007C
:103EE000074ADBB282F8003303689B7803B11460A1
:103EF00004710020F0BD0120F0BD00BF00ED00E026
:103F000000E100E0FCF784BC0020FCF795BC000059
:103F1000F8B5037A0446002B42D10068FCF77CFE1A
:103F2000204B657AD9686368C1F30221C1F1070E9D
:103F3000BEF1060F1A785F7828BF4FF0060E01B168
:103F40000139012000FA01F3013B00FA0EF003EA07
:103F50000706431E13408B406AB2002A43EA060359
:103F60004FEA8303ADBF02F160420F4A05F00F052F
:103F700002F56142B9BFDBB25355DBB282F80033C0
:103F8000627A53B2002BA1BF012102F01F025B092C
:103F900001FA02F2A4BF054941F82320012323724C
:103FA0000020F8BD00ED00E014ED00E000E100E0CD
:103FB0000148FCF749BF00BF00400150437B10B5EA
:103FC000044653B98068217BFCF76EFCA268D36875
:103FD00043F48073D36001236373002010BDF8B5F0
:103FE000037C022B044629D1C068A168FEF7FDF8C6
:103FF000261F002756F8043F93E80300FEF76FF9E9
:10400000336803211868FEF7ACF931680B7A4BB9B5
:10401000E06807F11005D0F880200123AB4013437E
:10402000C0F8803000234B721D460FB90127E1E72D
:10403000637C13B1E068FEF7FDF82574207CF8BDC1
:1040400038B50024104DAB68A34216D0EB68E340AE
:10405000DB0712D5FCF75AF804F540500430800312
:10406000FCF780F8FCF758F820280BD1012303FA5D
:1040700004F2EB6823EA0203EB600134042CE1D183
:10408000002038BD042038BDB4D5FF1F2DE9F04F06
:10409000057885B08246002D40F08780454F464C1C
:1040A00046497D6041F2180265608B58DFF818813F
:1040B00023F00F0343F001038B508B5843F400436C
:1040C0008B50FCF749FF3E48FCF73EFF012308F503
:1040D000405603FA05FB4FF00009D6F804C0BCF1C6
:1040E000000F28D0E3684BEA0303E360B9F1000F47
:1040F00001D106F580593146002251F8043B009366
:10410000304BCDF804C02E489A6140F6FC7203ABE8
:10411000FCF734FF039B009ADDF804C093420AD1F8
:104120007B689C4507D9234BA560C3F804C0666033
:10413000C4F8009003E0A6F580564645CDD201357F
:10414000042D08F58048C1D11C4941F218028B5852
:1041500023F00F038B50FFF773FFD8B96368164A3B
:104160001BB9194B9060136014E01A1F03F6FC7121
:1041700052F8045FF81A8A428550F9D12268D31A9E
:10418000B3F58050114B18BF01209A4282BF0A4BF1
:104190000D4A1A60094941F218028B5823F4004372
:1041A0008B5001238AF8003000E0002005B0BDE804
:1041B000F08F00BFACD8FF1FB4D5FF1F0010005810
:1041C00070DA0208200002500000010CFFFF010C11
:1041D00070B5094C044420460E46154608F0EEFD25
:1041E000003018BF012000239AB2AA4203D2F25C29
:1041F000E2540133F8E770BDB4D8FF1F10B5054B8A
:10420000184400239CB2944203D2C45CCC540133C2
:10421000F8E710BDB4D8FF1F2DE9F341254C264E19
:10422000A368226803F540530433B2EB833F13D0F5
:10423000736827682148224901337360214B0022AB
:104240009A6101AB40F6FC72FCF798FE019B33606B
:104250003D4607F580580CE07368002BE8D0636892
:10426000C3F38133A3600F23E360FFF7E9FEF0B9E6
:10427000DEE7FBF74BFFE91B28463144FBF754FF11
:10428000FBF74AFFB0F1004F07D005F580754545B3
:10429000EFD123686360002000E0032023680A490F
:1042A000044A03F580538B4288BF084B136002B069
:1042B000BDE8F081B4D5FF1FACD8FF1F70DA02084B
:1042C000B0D8FF1F20000250FFFF010C0000010CBE
:1042D000024B5868B0FA80F040097047B4D5FF1F10
:1042E00010B504460068FFF713FE2368217B1868A9
:1042F0006268FCF7F3FC98B963689A6A5AB123685C
:10430000217B1868FCF7C2FC94E80C00217B106844
:104310005A6AFCF793FD2046A3689847002010BD19
:10432000012010BD03681968037B30B5582404FBD5
:1043300003134FF48062DA61054B1A68037B634311
:10434000CA50044B027B1D6804FB02139D6030BD04
:104350000409002068D7FF1F03681968037B30B584
:10436000582404FB03134FF48062DA61054B1A688A
:10437000037B6343CA50044B027B1D6804FB02139A
:104380009D6030BDFCF8FF1F70D7FF1F10B50446BD
:10439000221D217C0068FBF7F5FE2068217C627CF1
:1043A000FCF70FFE002010BD8368B3F5401F13B566
:1043B00004460BD1C26890F82210037C0092426937
:1043C00001920068626AFCF7E5FB59E0B3F5801FD3
:1043D0000BD1006894F82210FCF74AFB94F82230C5
:1043E0002268043302EB83031CE0B3F5001F1CD1E9
:1043F000E26894F8221063690068FCF743FB94F8C4
:104400002030012B08BF94F82220236801BF03EB62
:10441000C202516841F08041516094F82220043278
:1044200003EB820300225A602AE0B3F5A00F19D1F2
:1044300090F82210028B438BC06800906069019055
:104440002068FCF73BFB236894F82220616803EBAB
:10445000C2020979936801F00F0123F00F030B43A7
:1044600093600DE0B3F5800F09D1006894F8221035
:10447000E268636902B0BDE81040FCF751BB002060
:1044800002B010BD10B50446006894F822106268AE
:10449000FCF7B0FA2046FFF787FF94F8283043B9BD
:1044A00094F82220236803EBC2035A6822F4E00246
:1044B0005A6094F82130012B01BF2268936843F4BD
:1044C00000439360003018BF012010BD8BB203F28F
:1044D000FF7210B592B240F6FE74A2420FD80029C6
:1044E000B8BF03F5805190F82230026803F104034D
:1044F00002EB8303B8BF09B25960002010BD02204F
:1045000010BD0000164B174AD96821F4E061090478
:10451000090C0A43DA6072B6134A9A60BFF34F8FF0
:1045200062B6124841F21401425822F00F0242F0E2
:10453000020242505A6922F010025A615A6922F06E
:1045400008025A615A6A22F480325A625A6A22F484
:1045500000325A625A6A22F480225A62704700BFBF
:1045600000ED00E00001FA0500000008001000580E
:1045700090F8253010B56BB982689368DB0709D4D1
:10458000446890F82700E368012101FA00F0034332
:10459000E360D16010BD30B50123D0F8A4408B405A
:1045A0002343C0F8A430BDE83040FCF7FDB938B56E
:1045B00090F82550022D044663D10068FFF7FEFCF9
:1045C00000210546A068FCF7DEF9A0680121FCF790
:1045D00092F9A068E2680121FCF7A2F9A37F43B138
:1045E000A06822690221FCF79BF9A0680221FCF770
:1045F00090F9E17F39B1A0686269FCF791F9A06890
:10460000E17FFCF77FF9A068A2694FF6FF7343636F
:10461000A38BC36363681A6194F8283023B1022125
:1046200094F82020FFF7B7FF94F829302BB1A06849
:1046300094F821200021FFF7AEFF94F82A302BB127
:10464000A06894F822200821FFF7A5FF94F82B30EA
:104650002BB1A06894F823200921FFF79CFF94F860
:104660002C302BB1A06894F824200A21FFF793FF87
:10467000002384F8253094F82D3013B12046FFF73D
:1046800077FF284638BD037813B94068FFF78FBF1E
:1046900001207047037823B943689B68186F80B284
:1046A00070470020704703781BB943689B6802225B
:1046B0001A6170474B1C012B98BF70472DE9F0031E
:1046C000911C9B08B1F80480B1F802900A8831F877
:1046D00002CC8044814402448444D9F80070D8F864
:1046E00000601568DCF80040C9F80060C8F8007088
:1046F000CCF800501460D9F80470D8F804605568FC
:10470000DCF80440C9F80460C8F80470CCF8045020
:1047100054600831013BD5D1BDE8F00370474B1C14
:10472000012B98BF70472DE9F003911C9B08B1F84D
:104730000480B1F802900A8831F802CC00EB5808E6
:1047400000EB590900EB520200EB5C0CD9F8007049
:10475000D8F800601568DCF80040C9F80060C8F8B7
:104760000070CCF8005014600831013BDFD1BDE887
:10477000F00370472DE9F04F028895B001EB8203FA
:104780008C4602935108436804918C00D208029928
:10479000039003EB02120CEB0405E3460C4489463C
:1047A00010920193019A10998A420BF1100B05F1B6
:1047B000100504F1100409F1100900F00D811293A5
:1047C0005BF8103C05935BF80C3C06935BF8083CE7
:1047D000079355F8103C089355F80C3C099355F88D
:1047E000083C0A9355F8043C0B9354F8103C59F8D4
:1047F000102C0C9354F80C3C0D9354F8083C05987D
:104800000E93114654F8043CCDF84CC00F9311920E
:1048100007F04CFC59F80CAC59F8088C59F8046CAA
:104820004BF8100C514606985BF8047C07F03EFCF0
:1048300041464BF80C0C079807F038FC31464BF812
:10484000080C384607F032FC119A4BF8040C11465C
:10485000059807F029FC51460590069807F024FCBE
:1048600041468246079807F01FFC314606903846BD
:1048700007F01AFC079008980C9907F017FC0D999F
:1048800045F8100C099807F011FC0E9945F80C0C2E
:104890000A9807F00BFC0F9945F8080C0B9807F0E5
:1048A00005FC089945F8040C0C9807F0FDFB0999E4
:1048B00080460D9807F0F8FB0A9908900E9807F0CB
:1048C000F3FB0B9909900F9807F0EEFB019B0A9000
:1048D0001E6805985F68314607F0F0FC39460B907A
:1048E000504607F0EBFC0B9A0146104607F0DEFB42
:1048F000314649F8100C504607F0E0FC3946824634
:10490000059807F0DBFC0146504607F0CDFB394621
:1049100049F80C0C404607F0D1FC31468246089815
:1049200007F0CCFC0146504607F0BEFB394644F880
:10493000100C089807F0C2FC31460746404607F0C5
:10494000BDFC0146384607F0B1FB019B44F80C0C56
:104950009E680698DF6810333146019307F0AEFC7D
:1049600039468046079807F0A9FC0146404607F003
:104970009DFB314649F8080C079807F09FFC394623
:104980008046069807F09AFC0146404607F08CFBEB
:10499000394649F8040C099807F090FC31468046E6
:1049A0000A9807F08BFC0146404607F07DFB39462C
:1049B00044F8080C0A9807F081FC3146074609982C
:1049C00007F07CFC0146384607F070FB44F8040C05
:1049D000DDF84CC0129BE5E6BDF81040604621466C
:1049E0001A46022300F022FC039B02985A682146D3
:1049F000022315B0BDE8F04F00F018BC2DE9F04FD0
:104A000003880D684FEA5308A5B04FEA88020B46A9
:104A10001344009313440393134402934368019394
:104A20004FEA58031293009B0D9053F828400491CD
:104A300028462146069207F039FB21468346284640
:104A400007F032FB049B5D68039B5C68814621464E
:104A5000284607F02BFB21468246284607F024FB18
:104A6000009B05905F68029B5E68049B53F828508A
:104A7000039B53F828402946584607F017FB214668
:104A800007F014FB049B43F8080B0993009B504666
:104A9000596807F00BFB029B596807F007FB049B62
:104AA00039465860484607F001FB314607F0FCFAEA
:104AB000049B43F82800009B0598083329460E9371
:104AC00007F0F2FA214607F0F1FA009B29465860F8
:104AD000584607F0E9FA214607F0E6FA009B43F84A
:104AE0002800039B5046083339460F9307F0DCFA41
:104AF000314607F0D9FA039B39465860484607F01B
:104B0000D3FA314607F0D2FA039B43F82800029B00
:104B1000059808332946109307F0C8FA214607F094
:104B2000C3FA029B069A5860019B18331193129B9B
:104B3000023B5B082093099B0B93039B043B089368
:104B4000029B043A13440793DDF844C00E9B06937E
:104B50000F9B0A934FF00009109B0593CDF83090FE
:104B6000CA460B9B08330B930C9B08330C93089B92
:104B7000083B0893079B083B0793069B0833069363
:104B80000A9B08330A93059B08330593209B9A459B
:104B9000A9F108090CF1180C00F0BB810B9BCDF8B2
:104BA0008CC053F8085C0A9B53F8084C28462146F1
:104BB00007F07CFA21468046284607F075FA0B9BE1
:104BC000139053F8045C0A9B53F8044C2846214682
:104BD00007F06CFA21460746284607F065FA069B5F
:104BE000149053F804BC059B139853F8046C594671
:104BF00007F05CFA314607F057FA069B159053F818
:104C0000085C059B149853F8084C294607F04CFAA9
:104C1000214607F04BFA29461690404607F044FA21
:104C2000214607F041FA59461790384607F03CFAFA
:104C3000314607F039FA59461890139807F034FABC
:104C4000314607F033FA29461990149807F02EFAE6
:104C5000214607F029FA29461490404607F026FA23
:104C6000214607F023FA0B9B43F8080C069B3846B5
:104C700053F8041C07F01AFA059B53F8041C07F0BC
:104C800015FA0B9B43F8040C009B53F80950029B48
:104C900053F809402846214607F008FA2146804685
:104CA000284607F001FA009B03EB0902029B5568B6
:104CB00022924B4483465C6813932146284607F0B2
:104CC000F5F921461A90284607F0EEF9089B1B904B
:104CD0009D68079B9C682846214607F0E5F95946E0
:104CE000219007F0E3F9089B1C905F68079B1B98D5
:104CF0005E68394607F0D8F9314607F0D7F93946EA
:104D00001D90404607F0D0F9314607F0CDF929460D
:104D10001E901A9807F0C8F9214607F0C5F9219BA3
:104D20001F905946184607F0BFF93946834630466A
:104D300007F0BAF91B9907F0B7F9294606461A9801
:104D400007F0B4F9214607F0B1F9229A089B5060A8
:104D50005968404607F0AAF9079B596807F0A6F979
:104D6000009B0C9A43F80900019B15989C5813442A
:104D700021465D6807F0A2FA29468046169807F09A
:104D80009DFA0146404607F091F9069B214643F8FB
:104D9000080C169807F092FA29468046159807F0F5
:104DA0008DFA0146404607F07FF9069B294643F8F5
:104DB000040C1D9807F082FA214680461C9807F0E3
:104DC0007DFA0146404607F06FF9089B2946986036
:104DD0001C9807F073FA214605461D9807F06EFAF5
:104DE0000146284607F062F9089B0C9A5860019B1F
:104DF000179853F8124003EB0A1321465D6907F038
:104E00005DFA29460746189807F058FA01463846D1
:104E100007F04CF90A9B214643F8080C189807F054
:104E20004DFA29460746179807F048FA01463846D2
:104E300007F03AF90A9B43F8040C1F9B214603F143
:104E4000004007F03BFA294607461E9807F036FA5D
:104E50000146384607F028F9139B294658601F98E9
:104E600007F02CFA214605461E9807F027FA01465E
:104E7000284607F019F9029BDDF88CC043F80900B9
:104E80005CF8184C19985CF8145CCDF84CC02146BD
:104E900007F014FA29460746149807F00FFA01465E
:104EA000384607F003F9059B214643F8080C14988F
:104EB00007F004FA29460746199807F0FFF901465A
:104EC000384607F0F1F8059B294643F8040C3046B4
:104ED00007F0F4F921460746584607F0EFF9014676
:104EE000384607F0E1F8079B29469860584607F0D6
:104EF000E5F921460546304607F0E0F90146284627
:104F000007F0D4F8079BDDF84CC058600AF1010A9D
:104F100027E6099A01994FEACA031A44069203F157
:104F2000080211441A924FEA0A1C019A18910CF1D6
:104F3000100C62441821179201FB0AF2079207999C
:104F4000119ACDF864C00A4416920E9AD7180F9A97
:104F50001A440592109A02EB0309099B53F83A5040
:104F60000F9B53F83A402846214607F09FF8214608
:104F70000890284607F098F8069B5D68059B5C68DA
:104F800083462146284607F091F821460A90284694
:104F900007F08AF8D7F80480D9F804600B904146EE
:104FA000584607F083F8314607F07EF80E9B0C90C8
:104FB00053F83A50109B0B9853F83A40294607F0A3
:104FC00073F8214607F072F829461390089807F005
:104FD0006BF8214607F068F8414614900A9807F0EC
:104FE00063F8314607F060F841461590584607F0DF
:104FF0005BF8314607F05AF8294683460B9807F0CC
:1050000055F8214607F050F829460646089807F05B
:105010004DF8214607F04AF8099B43F83A007968B1
:105020000A9807F043F8D9F8041007F03FF8069BF8
:105030001A9A5860019B0C989D58189B29465C68E9
:1050400007F03CF921468046139807F037F90146EE
:10505000404607F02BF80E9B294643F83A00139878
:1050600007F02CF9214605460C9807F027F9014670
:10507000284607F019F8DDF864C0019B786053F802
:105080000C50179B14985C68294607F017F92146C5
:105090000746159807F012F90146384607F006F85A
:1050A0000F9B294643F83A00159807F007F9214667
:1050B0000546149807F002F90146284606F0F4FF69
:1050C000059B079A5860119B9D58169B2946584688
:1050D0005C6807F0F3F821460746304607F0EEF823
:1050E0000146384606F0E2FF109B294643F83A0095
:1050F000304607F0E3F821460546584607F0DEF84B
:105100000146284606F0D0FFC9F80400BDF8484023
:105110000498019A2146042300F088F80D9B00981A
:105120005A682146042300F081F80D9B03985A68C1
:105130002146042300F07AF80D9B02985A68214614
:10514000042325B0BDE8F04F00F070B8012A2DE926
:10515000F04106460D461746984604881BD0B4F524
:10516000807F2BD009D8202C28D001D8102C02E029
:10517000402C28D0802C1CD02BE0B4F5806F18D0A8
:1051800002D8B4F5007F04E0B4F5006F16D0B4F592
:10519000805F18D01DE00B1D0022A24203F108031E
:1051A000DDD253F8081C01F1004143F8081C01321C
:1051B000F3E730462946FFF7DDFA0AE03046294694
:1051C000FFF71CFC05E0284621467268012300F029
:1051D0002DF8B8F1000F04D02846B189B268FFF766
:1051E00069FA012F1FD1204607F010F801464FF051
:1051F0007E5007F017F900260746A64205F108057C
:1052000011D255F8080C394607F058F845F8080C43
:1052100055F8040C394600F1004007F04FF801360C
:1052200045F8040CE9E7BDE8F08100002DE9F04FF6
:10523000ABB094460B930D900E910B460993099BCE
:105240000D99DB080193099B0198DB000A93019BF0
:10525000DA000D9B13449A180C92282242430392C1
:10526000302242430692382242430C1D08921821F4
:105270000C9A4143A2EBC0020291410105911892A0
:10528000010100229A46049107921093029B54F860
:10529000046C5AF80350CDF868C02946304606F031
:1052A00005FF29468046304606F0FEFE079B0F901C
:1052B0001A46109B199353F83260059B5AF8035015
:1052C0003046294606F0F2FE29460746304606F0EB
:1052D000EBFE079A0C9B109053F83290039B5AF800
:1052E00003604846314606F0E1FE31460546484631
:1052F00006F0DAFE049B11905AF803B0069B5AF8A8
:1053000003905846494606F0D1FE4946064658469F
:1053100006F0CAFE29461290404606F0C5FE294610
:105320001390404606F0C2FE31460546384606F068
:10533000BBFE31461490384606F0B8FE06463146AC
:10534000284606F0B3FE314644F8040C284606F021
:10535000ABFE029B4AF803002668059BE5583046E1
:10536000294606F0A3FE29460746304606F09CFE75
:10537000039BDAF80460E55815902946304606F09C
:1053800095FE29461690304606F08EFE049B54F892
:105390000380069BE55883462946404606F086FE74
:1053A00029460646404606F07FFE029B179054F8B9
:1053B0000380089BE5584046294606F077FE2946BB
:1053C0008146404606F070FE31468046384606F07B
:1053D0006BFE31460546384606F068FE49460746EC
:1053E000169806F061FE49460646169806F05EFEDF
:1053F00081464946384606F059FE494620603846FF
:1054000006F052FE059B3146E050139806F04EFE22
:10541000079A0C9B314643F83200139806F044FE7D
:10542000039B14994AF80300284606F03DFE049BAE
:105430001499E050284606F039FE069B1299E05078
:10544000109806F031FE674906F038FF12990646BB
:10545000109806F02BFE634906F030FF41460546E2
:10546000584606F021FE5F4906F028FF41460746F0
:10547000584606F01BFE5B4906F020FF3146834686
:105480000F9806F011FE314681460F9806F00EFE89
:1054900029460F90119806F007FE294610901198A2
:1054A00006F004FE39460646159806F0FDFD39461D
:1054B0000546159806F0FAFD59460746179806F076
:1054C000F3FD59468046179806F0F0FD834659468D
:1054D0000F9806F0EBFD079A189B594643F83200E7
:1054E0000F9806F0E1FD069B41464AF80300484646
:1054F00006F0DCFD059B41464AF80300484606F0ED
:10550000D3FD049B31464AF80300384606F0CCFD33
:105510003146CAF80400384606F0C8FD089B1099C9
:10552000E050284606F0C0FD039B1099E050284645
:1055300006F0BCFD029B099AE050079B13440793B9
:105540000A9B9A441C44079B0E9ADDF868C093425C
:10555000199BFFF49AAE019B072B40F28D8201222A
:105560000D980B9B07925CF833200F921A01D9001B
:105570005CF80220109218225A4300F10C0A5CF8E1
:10558000022011925A015CF80220129228225A43FA
:105590005CF80220139230225A435CF802201492E5
:1055A00038225A435CF8022015920CEB0102546831
:1055B00016940A44546817940A44546818940A4488
:1055C000546819940A4454681A940A4454681B9401
:1055D0000A4452681C9200F108021D929346079AF1
:1055E0000C9201E0F304353F2893059B5AF8045CC4
:1055F0005BF80340CDF8A4C02146284606F056FDCE
:1056000021460746284606F04FFD019B1E905BF899
:105610003350039B5BF803402846214606F046FDC5
:1056200021460646284606F03FFD049B1F905BF886
:105630000380069B5BF803504046294606F036FD82
:1056400029460446404606F02FFD029B20905BF859
:105650000390089B5BF803804846414606F026FD10
:1056600041460546484606F01FFD21462190384632
:1056700006F01AFD21468146384606F017FD2946F8
:105680000446304606F010FD29462290304606F0CA
:105690000DFD05462946204606F008FD29464AF834
:1056A000040C204606F000FD059BDBF804505AF878
:1056B000034023902146284606F0F8FC2146804608
:1056C000284606F0F1FC019B24905AF83350039BC6
:1056D0005AF803402846214606F0E8FC21460646D3
:1056E000284606F0E1FC049B25905AF80350069BDF
:1056F0005AF803402846214606F0D8FC21460746C2
:10570000284606F0D1FC029B26905AF80320089BFD
:1057100027925AF803501046294606F0C7FC279AEC
:1057200004462946104606F0BFFC394627904046FD
:1057300006F0BAFC39460546404606F0B7FC21465D
:105740000746304606F0B0FC21468046304606F05B
:10575000ADFC41460646484606F0A8FC41460446D4
:10576000484606F0A1FC31468046384606F09EFCCD
:105770003146CBF80400384606F096FC22990746DD
:10578000284606F091FC22990646284606F08EFC33
:1057900005461298239906F091FD394681461998DD
:1057A00006F08CFD0146484606F080FC059B394614
:1057B0004BF80300129806F081FD239907461998CB
:1057C00006F07CFD0146384606F06EFC059B21463E
:1057D0004AF80300109806F071FD31460746179805
:1057E00006F06CFD0146384606F060FC049B31462D
:1057F0004BF80300109806F061FD21460646179805
:1058000006F05CFD0146304606F04EFC049B414626
:105810004AF80300149806F051FD294604461B98E7
:1058200006F04CFD0146204606F040FC069B29464A
:105830004BF80300149806F041FD414604461B98BE
